{
    "contractName": "MyWallet",
    "abi": [
        {
            "inputs": [],
            "stateMutability": "payable",
            "type": "constructor"
        },
        {
            "inputs": [],
            "name": "deposit",
            "outputs": [],
            "stateMutability": "payable",
            "type": "function"
        },
        {
            "inputs": [],
            "name": "owner",
            "outputs": [
                {
                    "internalType": "address payable",
                    "name": "",
                    "type": "address"
                }
            ],
            "stateMutability": "view",
            "type": "function"
        },
        {
            "inputs": [],
            "name": "withdraw",
            "outputs": [],
            "stateMutability": "nonpayable",
            "type": "function"
        },
        {
            "stateMutability": "payable",
            "type": "receive"
        }
    ],
    "bytecode": "608060408190525f80546001600160a01b031916331790556101ba90816100248239f3fe608080604052600436101561001c575b50361561001a575f80fd5b005b5f3560e01c9081633ccfd60b14610081575080638da5cb5b1461005a5763d0e30db014610049575f61000f565b5f36600319011261005657005b5f80fd5b34610056575f366003190112610056575f546040516001600160a01b039091168152602090f35b34610056575f366003190112610056575f546001600160a01b0316903382900361014e575f80808047865af13d15610149573d67ffffffffffffffff81116101355760405190601f8101601f19908116603f0116820167ffffffffffffffff8111838210176101355760405281525f60203d92013e5b156100fe57005b60405162461bcd60e51b815260206004820152600f60248201526e15da5d1a191c985dc819985a5b1959608a1b6044820152606490fd5b634e487b7160e01b5f52604160045260245ffd5b6100f7565b62461bcd60e51b81526020600482015260116024820152702cb7ba9030b932903737ba1037bbb732b960791b6044820152606490fdfea2646970667358221220fbcbc6911b76c4e6317c96a72393bed127e443791cef55371986610fcc168bc664736f6c634300081e0033",
    "sourcePath": "d:/block/contracts/mywallet.sol",
    "compiler": {
        "name": "solc",
        "version": "0.8.30+commit.73712a01"
    },
    "functionHashes": {
        "deposit()": "d0e30db0",
        "owner()": "8da5cb5b",
        "withdraw()": "3ccfd60b"
    },
    "gasEstimates": {
        "creation": {
            "codeDepositCost": "88400",
            "executionCost": "24363",
            "totalCost": "112763"
        },
        "external": {
            "deposit()": "161",
            "owner()": "2301",
            "withdraw()": "infinite"
        }
    }
}