{
    "contractName": "DocumentVerification",
    "abi": [
        {
            "anonymous": false,
            "inputs": [
                {
                    "indexed": true,
                    "internalType": "address",
                    "name": "checker",
                    "type": "address"
                },
                {
                    "indexed": true,
                    "internalType": "bytes32",
                    "name": "documentHash",
                    "type": "bytes32"
                },
                {
                    "indexed": false,
                    "internalType": "bool",
                    "name": "isVerified",
                    "type": "bool"
                }
            ],
            "name": "DocumentChecked",
            "type": "event"
        },
        {
            "anonymous": false,
            "inputs": [
                {
                    "indexed": true,
                    "internalType": "address",
                    "name": "verifier",
                    "type": "address"
                },
                {
                    "indexed": true,
                    "internalType": "bytes32",
                    "name": "documentHash",
                    "type": "bytes32"
                },
                {
                    "indexed": false,
                    "internalType": "string",
                    "name": "documentName",
                    "type": "string"
                },
                {
                    "indexed": false,
                    "internalType": "string",
                    "name": "documentType",
                    "type": "string"
                },
                {
                    "indexed": false,
                    "internalType": "uint256",
                    "name": "timestamp",
                    "type": "uint256"
                }
            ],
            "name": "DocumentVerified",
            "type": "event"
        },
        {
            "inputs": [
                {
                    "internalType": "bytes32",
                    "name": "_documentHash",
                    "type": "bytes32"
                }
            ],
            "name": "checkDocument",
            "outputs": [
                {
                    "internalType": "bool",
                    "name": "",
                    "type": "bool"
                }
            ],
            "stateMutability": "nonpayable",
            "type": "function"
        },
        {
            "inputs": [
                {
                    "internalType": "bytes32",
                    "name": "_documentHash",
                    "type": "bytes32"
                }
            ],
            "name": "getDocumentInfo",
            "outputs": [
                {
                    "internalType": "bool",
                    "name": "exists",
                    "type": "bool"
                },
                {
                    "internalType": "address",
                    "name": "verifiedBy",
                    "type": "address"
                },
                {
                    "internalType": "uint256",
                    "name": "timestamp",
                    "type": "uint256"
                },
                {
                    "internalType": "string",
                    "name": "documentName",
                    "type": "string"
                },
                {
                    "internalType": "string",
                    "name": "documentType",
                    "type": "string"
                }
            ],
            "stateMutability": "view",
            "type": "function"
        },
        {
            "inputs": [
                {
                    "internalType": "address",
                    "name": "_user",
                    "type": "address"
                }
            ],
            "name": "getUserDocumentCount",
            "outputs": [
                {
                    "internalType": "uint256",
                    "name": "",
                    "type": "uint256"
                }
            ],
            "stateMutability": "view",
            "type": "function"
        },
        {
            "inputs": [
                {
                    "internalType": "address",
                    "name": "_user",
                    "type": "address"
                }
            ],
            "name": "getUserDocuments",
            "outputs": [
                {
                    "internalType": "bytes32[]",
                    "name": "",
                    "type": "bytes32[]"
                }
            ],
            "stateMutability": "view",
            "type": "function"
        },
        {
            "inputs": [
                {
                    "internalType": "bytes32",
                    "name": "_documentHash",
                    "type": "bytes32"
                }
            ],
            "name": "isDocumentVerified",
            "outputs": [
                {
                    "internalType": "bool",
                    "name": "",
                    "type": "bool"
                }
            ],
            "stateMutability": "view",
            "type": "function"
        },
        {
            "inputs": [
                {
                    "internalType": "bytes32",
                    "name": "_documentHash",
                    "type": "bytes32"
                },
                {
                    "internalType": "string",
                    "name": "_documentName",
                    "type": "string"
                },
                {
                    "internalType": "string",
                    "name": "_documentType",
                    "type": "string"
                }
            ],
            "name": "verifyDocument",
            "outputs": [],
            "stateMutability": "nonpayable",
            "type": "function"
        }
    ],
    "bytecode": "608080604052346015576108fe908161001a8239f35b5f80fdfe6080806040526004361015610012575f80fd5b5f3560e01c908163090b0a301461066e575080630916f695146106125780638b2c0fb91461018457806390a4b162146100cc57806395e4856f146100905763e5dcfd801461005e575f80fd5b3461008c57602036600319011261008c576004355f525f602052602060ff60405f2054166040519015158152f35b5f80fd5b3461008c57602036600319011261008c576004356001600160a01b0381169081900361008c575f526001602052602060405f2054604051908152f35b3461008c57602036600319011261008c576004356001600160a01b0381169081900361008c575f52600160205260405f20604051806020835491828152019081935f5260205f20905f5b81811061016e575050508161012c910382610778565b604051918291602083019060208452518091526040830191905f5b818110610155575050500390f35b8251845285945060209384019390920191600101610147565b8254845260209093019260019283019201610116565b3461008c57606036600319011261008c5760043560243567ffffffffffffffff811161008c576101b890369060040161079a565b60443567ffffffffffffffff811161008c576101d890369060040161079a565b82156105cd5781511561058857825f525f60205260ff60405f205416610543576040516102048161075c565b6001815260208101903382526040810142815260608201908582526080830193858552875f525f60205260405f20935115159060ff855491610100600160a81b03905160081b169216906affffffffffffffffffffff60a81b161717835551600183015560028201905180519067ffffffffffffffff82116103bb5761028a83546107f0565b601f81116104fe575b50602090601f8311600114610498576003949392915f918361048d575b50508160011b915f1990861b1c19161790555b01905180519067ffffffffffffffff82116103bb5781906102e484546107f0565b601f811161043d575b50602090601f83116001146103da575f926103cf575b50508160011b915f199060031b1c19161790555b335f52600160205260405f2090815490680100000000000000008210156103bb57600182018084558210156103a75784610398927f584d6b3f31e2abbe7c4f187b1015b0207d1b31884e5373d358069c5d7a0a79d9945f5260205f20015561038a60405194606086526060860190610738565b908482036020860152610738565b914260408201528033930390a3005b634e487b7160e01b5f52603260045260245ffd5b634e487b7160e01b5f52604160045260245ffd5b015190508680610303565b5f8581528281209350601f198516905b818110610425575090846001959493921061040d575b505050811b019055610317565b01515f1960f88460031b161c19169055868080610400565b929360206001819287860151815501950193016103ea565b909150835f5260205f20601f840160051c81019160208510610483575b90601f859493920160051c01905b81811061047557506102ed565b5f8155849350600101610468565b909150819061045a565b0151905089806102b0565b90601f19831691845f52815f20925f5b8181106104e65750916001939185600398979694106104cf575b505050811b0190556102c3565b01515f1983881b60f8161c191690558980806104c2565b929360206001819287860151815501950193016104a8565b835f5260205f20601f840160051c81019160208510610539575b601f0160051c01905b81811061052e5750610293565b5f8155600101610521565b9091508190610518565b60405162461bcd60e51b815260206004820152601a60248201527f446f6b756d656e2073756461682064697665726966696b6173690000000000006044820152606490fd5b60405162461bcd60e51b815260206004820152601760248201527f4e616d6120646f6b756d656e2064697065726c756b616e0000000000000000006044820152606490fd5b60405162461bcd60e51b815260206004820152601860248201527f4861736820646f6b756d656e20746964616b2076616c696400000000000000006044820152606490fd5b3461008c57602036600319011261008c576020600435805f525f825260ff60405f20541690604051911515918281527fe18e0eec7c6e569392ab12fd9df2e1395289b38f492cd2e0bb96003e9652150b843392a3604051908152f35b3461008c57602036600319011261008c576004355f525f60205260405f20906106968161075c565b815460ff81161515825260081c6001600160a01b03166020820190815260018301546040830190815292909161073491610726906106e960036106db60028401610828565b926060860193845201610828565b928360808201525115159460018060a01b03905116955190519060405196879687526020870152604086015260a0606086015260a0850190610738565b908382036080850152610738565b0390f35b805180835260209291819084018484015e5f828201840152601f01601f1916010190565b60a0810190811067ffffffffffffffff8211176103bb57604052565b90601f8019910116810190811067ffffffffffffffff8211176103bb57604052565b81601f8201121561008c5780359067ffffffffffffffff82116103bb57604051926107cf601f8401601f191660200185610778565b8284526020838301011161008c57815f926020809301838601378301015290565b90600182811c9216801561081e575b602083101461080a57565b634e487b7160e01b5f52602260045260245ffd5b91607f16916107ff565b9060405191825f82549261083b846107f0565b80845293600181169081156108a65750600114610862575b5061086092500383610778565b565b90505f9291925260205f20905f915b81831061088a575050906020610860928201015f610853565b6020919350806001915483858901015201910190918492610871565b90506020925061086094915060ff191682840152151560051b8201015f61085356fea26469706673582212200d81f7bf2f670a92b00c16223fe7e6c70befa721e6d85d1d391dd92244f0ce1864736f6c634300081e0033",
    "sourcePath": "d:/xampp/htdocs/Website-CertiChain/contract/DocumentVerification.sol",
    "compiler": {
        "name": "solc",
        "version": "0.8.30+commit.73712a01"
    },
    "functionHashes": {
        "checkDocument(bytes32)": "0916f695",
        "getDocumentInfo(bytes32)": "090b0a30",
        "getUserDocumentCount(address)": "95e4856f",
        "getUserDocuments(address)": "90a4b162",
        "isDocumentVerified(bytes32)": "e5dcfd80",
        "verifyDocument(bytes32,string,string)": "8b2c0fb9"
    },
    "gasEstimates": {
        "creation": {
            "codeDepositCost": "460400",
            "executionCost": "500",
            "totalCost": "460900"
        },
        "external": {
            "checkDocument(bytes32)": "4148",
            "getDocumentInfo(bytes32)": "infinite",
            "getUserDocumentCount(address)": "2455",
            "getUserDocuments(address)": "infinite",
            "isDocumentVerified(bytes32)": "2439",
            "verifyDocument(bytes32,string,string)": "infinite"
        }
    }
}